{
  "contractName": "ProductTraceability",
  "abi": [
    {
      "inputs": [],
      "stateMutability": "nonpayable",
      "type": "constructor"
    },
    {
      "anonymous": false,
      "inputs": [
        {
          "indexed": false,
          "internalType": "address",
          "name": "actor",
          "type": "address"
        }
      ],
      "name": "ActorAuthorized",
      "type": "event"
    },
    {
      "anonymous": false,
      "inputs": [
        {
          "indexed": false,
          "internalType": "uint256",
          "name": "productId",
          "type": "uint256"
        },
        {
          "indexed": false,
          "internalType": "string",
          "name": "description",
          "type": "string"
        },
        {
          "indexed": false,
          "internalType": "string",
          "name": "date",
          "type": "string"
        },
        {
          "indexed": false,
          "internalType": "address",
          "name": "actor",
          "type": "address"
        }
      ],
      "name": "StepAdded",
      "type": "event"
    },
    {
      "inputs": [
        {
          "internalType": "address",
          "name": "",
          "type": "address"
        }
      ],
      "name": "authorizedActors",
      "outputs": [
        {
          "internalType": "bool",
          "name": "",
          "type": "bool"
        }
      ],
      "stateMutability": "view",
      "type": "function",
      "constant": true
    },
    {
      "inputs": [],
      "name": "owner",
      "outputs": [
        {
          "internalType": "address",
          "name": "",
          "type": "address"
        }
      ],
      "stateMutability": "view",
      "type": "function",
      "constant": true
    },
    {
      "inputs": [],
      "name": "productCount",
      "outputs": [
        {
          "internalType": "uint256",
          "name": "",
          "type": "uint256"
        }
      ],
      "stateMutability": "view",
      "type": "function",
      "constant": true
    },
    {
      "inputs": [
        {
          "internalType": "address",
          "name": "_actor",
          "type": "address"
        }
      ],
      "name": "authorizeActor",
      "outputs": [],
      "stateMutability": "nonpayable",
      "type": "function"
    },
    {
      "inputs": [
        {
          "internalType": "uint256",
          "name": "_productId",
          "type": "uint256"
        },
        {
          "internalType": "string",
          "name": "_description",
          "type": "string"
        },
        {
          "internalType": "string",
          "name": "_date",
          "type": "string"
        }
      ],
      "name": "addStep",
      "outputs": [],
      "stateMutability": "nonpayable",
      "type": "function"
    },
    {
      "inputs": [
        {
          "internalType": "uint256",
          "name": "_productId",
          "type": "uint256"
        }
      ],
      "name": "getHistory",
      "outputs": [
        {
          "components": [
            {
              "internalType": "string",
              "name": "description",
              "type": "string"
            },
            {
              "internalType": "string",
              "name": "date",
              "type": "string"
            },
            {
              "internalType": "address",
              "name": "actor",
              "type": "address"
            }
          ],
          "internalType": "struct ProductTraceability.Step[]",
          "name": "",
          "type": "tuple[]"
        }
      ],
      "stateMutability": "view",
      "type": "function",
      "constant": true
    }
  ],
  "bytecode": "0x608060405234801561001057600080fd5b50600280546001600160a01b031916331790556108b9806100326000396000f3fe608060405234801561001057600080fd5b50600436106100625760003560e01c8063043e1922146100675780635bb3c096146100905780638da5cb5b146100a5578063c8691b2a146100ba578063e0f6ef87146100da578063e1a390fd146100ef575b600080fd5b61007a6100753660046105a2565b610102565b6040516100879190610748565b60405180910390f35b6100a361009e3660046105e8565b610117565b005b6100ad610246565b604051610087919061069d565b6100cd6100c83660046105d0565b610255565b60405161008791906106b1565b6100e26103f8565b60405161008791906107bd565b6100a36100fd3660046105a2565b6103fe565b60016020526000908152604090205460ff1681565b3360009081526001602052604090205460ff1661014f5760405162461bcd60e51b815260040161014690610795565b60405180910390fd5b8261016f576003805490600061016483610846565b919050555060035492505b60008381526020818152604080832081516060810183528681528084018690523392810192909252805460018101825590845292829020815180519294600302909101926101c292849290910190610488565b5060208281015180516101db9260018501920190610488565b5060409182015160029190910180546001600160a01b0319166001600160a01b03909216919091179055517f20078cd40a821ea95d6437fc88fb514e0418a9f25d03bdef10f6efeae0a0e7f4906102399085908590859033906107c6565b60405180910390a1505050565b6002546001600160a01b031681565b600081815260208181526040808320805482518185028101850190935280835260609492939192909184015b828210156103ed57838290600052602060002090600302016040518060600160405290816000820180546102b49061080b565b80601f01602080910402602001604051908101604052809291908181526020018280546102e09061080b565b801561032d5780601f106103025761010080835404028352916020019161032d565b820191906000526020600020905b81548152906001019060200180831161031057829003601f168201915b505050505081526020016001820180546103469061080b565b80601f01602080910402602001604051908101604052809291908181526020018280546103729061080b565b80156103bf5780601f10610394576101008083540402835291602001916103bf565b820191906000526020600020905b8154815290600101906020018083116103a257829003601f168201915b5050509183525050600291909101546001600160a01b03166020918201529082526001929092019101610281565b505050509050919050565b60035481565b6002546001600160a01b031633146104285760405162461bcd60e51b815260040161014690610753565b6001600160a01b038116600090815260016020819052604091829020805460ff19169091179055517f3ba5cbac0bc1e7d65681fe89e16afe6a3b107acf332edd711810ba302b27da539061047d90839061069d565b60405180910390a150565b8280546104949061080b565b90600052602060002090601f0160209004810192826104b657600085556104fc565b82601f106104cf57805160ff19168380011785556104fc565b828001600101855582156104fc579182015b828111156104fc5782518255916020019190600101906104e1565b5061050892915061050c565b5090565b5b80821115610508576000815560010161050d565b600082601f830112610531578081fd5b813567ffffffffffffffff8082111561054c5761054c61086d565b604051601f8301601f1916810160200182811182821017156105705761057061086d565b604052828152848301602001861015610587578384fd5b82602086016020830137918201602001929092529392505050565b6000602082840312156105b3578081fd5b81356001600160a01b03811681146105c9578182fd5b9392505050565b6000602082840312156105e1578081fd5b5035919050565b6000806000606084860312156105fc578182fd5b83359250602084013567ffffffffffffffff8082111561061a578384fd5b61062687838801610521565b9350604086013591508082111561063b578283fd5b5061064886828701610521565b9150509250925092565b60008151808452815b818110156106775760208185018101518683018201520161065b565b818111156106885782602083870101525b50601f01601f19169290920160200192915050565b6001600160a01b0391909116815260200190565b60208082528251828201819052600091906040908185019080840286018301878501865b8381101561073a57603f198984030185528151606081518186526106fb82870182610652565b915050888201518582038a8701526107138282610652565b928901516001600160a01b03169589019590955250948701949250908601906001016106d5565b509098975050505050505050565b901515815260200190565b60208082526022908201527f4f6e6c79206f776e65722063616e20706572666f726d2074686973206163746960408201526137b760f11b606082015260800190565b6020808252600e908201526d139bdd08185d5d1a1bdc9a5e995960921b604082015260600190565b90815260200190565b6000858252608060208301526107df6080830186610652565b82810360408401526107f18186610652565b91505060018060a01b038316606083015295945050505050565b60028104600182168061081f57607f821691505b6020821081141561084057634e487b7160e01b600052602260045260246000fd5b50919050565b600060001982141561086657634e487b7160e01b81526011600452602481fd5b5060010190565b634e487b7160e01b600052604160045260246000fdfea26469706673582212208816ff4b9fac8e41fdf33e40e4bfdfe07802be9a6d9cb133a09a7fa1abeb10a164736f6c63430008000033",
  "immutableReferences": {},
  "source": "// SPDX-License-Identifier: MIT\r\npragma solidity ^0.8.0;\r\n\r\ncontract ProductTraceability {\r\n    struct Step {\r\n        string description;\r\n        string date;\r\n        address actor;\r\n    }\r\n    \r\n    mapping(uint => Step[]) private productHistory;\r\n    mapping(address => bool) public authorizedActors;\r\n    address public owner;\r\n    uint public productCount;\r\n\r\n    event StepAdded(uint productId, string description, string date, address actor);\r\n    event ActorAuthorized(address actor);\r\n\r\n    modifier onlyOwner() {\r\n        require(msg.sender == owner, \"Only owner can perform this action\");\r\n        _;\r\n    }\r\n\r\n    modifier onlyAuthorized() {\r\n        require(authorizedActors[msg.sender], \"Not authorized\");\r\n        _;\r\n    }\r\n\r\n    constructor() {\r\n        owner = msg.sender;\r\n    }\r\n\r\n    function authorizeActor(address _actor) external onlyOwner {\r\n        authorizedActors[_actor] = true;\r\n        emit ActorAuthorized(_actor);\r\n    }\r\n\r\n    function addStep(uint _productId, string memory _description, string memory _date) external onlyAuthorized {\r\n        if(_productId == 0) {\r\n            productCount++;\r\n            _productId = productCount;\r\n        }\r\n        \r\n        productHistory[_productId].push(Step({\r\n            description: _description,\r\n            date: _date,\r\n            actor: msg.sender\r\n        }));\r\n        \r\n        emit StepAdded(_productId, _description, _date, msg.sender);\r\n    }\r\n\r\n    function getHistory(uint _productId) external view returns (Step[] memory) {\r\n        return productHistory[_productId];\r\n    }\r\n}",
  "sourcePath": "C:\\Users\\User\\Desktop\\ProductTraceability\\contracts\\ProductTraceability.sol",
  "compiler": {
    "name": "solc",
    "version": "0.8.0+commit.c7dfd78e.Emscripten.clang"
  },
  "schemaVersion": "3.4.16",
  "updatedAt": "2025-04-15T14:27:29.105Z",
  "networkType": "ethereum",
  "devdoc": {
    "kind": "dev",
    "methods": {},
    "version": 1
  },
  "userdoc": {
    "kind": "user",
    "methods": {},
    "version": 1
  }
}